{
  "_format": "hh-sol-artifact-1",
  "contractName": "Voting",
  "sourceName": "contracts/voting.sol",
  "abi": [
    {
      "inputs": [],
      "stateMutability": "nonpayable",
      "type": "constructor"
    },
    {
      "anonymous": false,
      "inputs": [
        {
          "indexed": false,
          "internalType": "uint256",
          "name": "id",
          "type": "uint256"
        },
        {
          "indexed": false,
          "internalType": "string",
          "name": "name",
          "type": "string"
        }
      ],
      "name": "CandidateAdded",
      "type": "event"
    },
    {
      "anonymous": false,
      "inputs": [
        {
          "indexed": false,
          "internalType": "address",
          "name": "voter",
          "type": "address"
        },
        {
          "indexed": false,
          "internalType": "uint256",
          "name": "candidateId",
          "type": "uint256"
        }
      ],
      "name": "VoteCasted",
      "type": "event"
    },
    {
      "inputs": [
        {
          "internalType": "string",
          "name": "_name",
          "type": "string"
        }
      ],
      "name": "addCandidate",
      "outputs": [],
      "stateMutability": "nonpayable",
      "type": "function"
    },
    {
      "inputs": [
        {
          "internalType": "uint256",
          "name": "",
          "type": "uint256"
        }
      ],
      "name": "candidates",
      "outputs": [
        {
          "internalType": "uint256",
          "name": "id",
          "type": "uint256"
        },
        {
          "internalType": "string",
          "name": "name",
          "type": "string"
        },
        {
          "internalType": "uint256",
          "name": "voteCount",
          "type": "uint256"
        }
      ],
      "stateMutability": "view",
      "type": "function"
    },
    {
      "inputs": [],
      "name": "candidatesCount",
      "outputs": [
        {
          "internalType": "uint256",
          "name": "",
          "type": "uint256"
        }
      ],
      "stateMutability": "view",
      "type": "function"
    },
    {
      "inputs": [
        {
          "internalType": "uint256",
          "name": "_id",
          "type": "uint256"
        }
      ],
      "name": "getCandidate",
      "outputs": [
        {
          "internalType": "string",
          "name": "",
          "type": "string"
        },
        {
          "internalType": "uint256",
          "name": "",
          "type": "uint256"
        }
      ],
      "stateMutability": "view",
      "type": "function"
    },
    {
      "inputs": [
        {
          "internalType": "address",
          "name": "",
          "type": "address"
        }
      ],
      "name": "hasVoted",
      "outputs": [
        {
          "internalType": "bool",
          "name": "",
          "type": "bool"
        }
      ],
      "stateMutability": "view",
      "type": "function"
    },
    {
      "inputs": [],
      "name": "owner",
      "outputs": [
        {
          "internalType": "address",
          "name": "",
          "type": "address"
        }
      ],
      "stateMutability": "view",
      "type": "function"
    },
    {
      "inputs": [
        {
          "internalType": "uint256",
          "name": "_candidateId",
          "type": "uint256"
        }
      ],
      "name": "vote",
      "outputs": [],
      "stateMutability": "nonpayable",
      "type": "function"
    }
  ],
  "bytecode": "0x6080604052348015600f57600080fd5b50336000806101000a81548173ffffffffffffffffffffffffffffffffffffffff021916908373ffffffffffffffffffffffffffffffffffffffff160217905550610f768061005f6000396000f3fe608060405234801561001057600080fd5b506004361061007d5760003560e01c80633477ee2e1161005b5780633477ee2e146100ec57806335b8e8201461011e578063462e91ec1461014f5780638da5cb5b1461016b5761007d565b80630121b93f1461008257806309eef43e1461009e5780632d35a8a2146100ce575b600080fd5b61009c60048036038101906100979190610690565b610189565b005b6100b860048036038101906100b3919061071b565b610327565b6040516100c59190610763565b60405180910390f35b6100d6610347565b6040516100e3919061078d565b60405180910390f35b61010660048036038101906101019190610690565b61034d565b60405161011593929190610838565b60405180910390f35b61013860048036038101906101339190610690565b6103ff565b604051610146929190610876565b60405180910390f35b610169600480360381019061016491906109db565b6104de565b005b610173610622565b6040516101809190610a33565b60405180910390f35b600360003373ffffffffffffffffffffffffffffffffffffffff1673ffffffffffffffffffffffffffffffffffffffff16815260200190815260200160002060009054906101000a900460ff1615610216576040517f08c379a000000000000000000000000000000000000000000000000000000000815260040161020d90610a9a565b60405180910390fd5b60008111801561022857506001548111155b610267576040517f08c379a000000000000000000000000000000000000000000000000000000000815260040161025e90610b06565b60405180910390fd5b6001600360003373ffffffffffffffffffffffffffffffffffffffff1673ffffffffffffffffffffffffffffffffffffffff16815260200190815260200160002060006101000a81548160ff0219169083151502179055506002600082815260200190815260200160002060020160008154809291906102e690610b55565b91905055507fd0e6c39f2e086dc49f1524b47725526a56945cd1ff661f37976f1725a1e56986338260405161031c929190610b9d565b60405180910390a150565b60036020528060005260406000206000915054906101000a900460ff1681565b60015481565b600260205280600052604060002060009150905080600001549080600101805461037690610bf5565b80601f01602080910402602001604051908101604052809291908181526020018280546103a290610bf5565b80156103ef5780601f106103c4576101008083540402835291602001916103ef565b820191906000526020600020905b8154815290600101906020018083116103d257829003601f168201915b5050505050908060020154905083565b6060600080600260008581526020019081526020016000206040518060600160405290816000820154815260200160018201805461043c90610bf5565b80601f016020809104026020016040519081016040528092919081815260200182805461046890610bf5565b80156104b55780601f1061048a576101008083540402835291602001916104b5565b820191906000526020600020905b81548152906001019060200180831161049857829003601f168201915b505050505081526020016002820154815250509050806020015181604001519250925050915091565b60008054906101000a900473ffffffffffffffffffffffffffffffffffffffff1673ffffffffffffffffffffffffffffffffffffffff163373ffffffffffffffffffffffffffffffffffffffff161461056c576040517f08c379a000000000000000000000000000000000000000000000000000000000815260040161056390610c72565b60405180910390fd5b6001600081548092919061057f90610b55565b91905055506040518060600160405280600154815260200182815260200160008152506002600060015481526020019081526020016000206000820151816000015560208201518160010190816105d69190610e3e565b50604082015181600201559050507fe83b2a43e7e82d975c8a0a6d2f045153c869e111136a34d1889ab7b598e396a360015482604051610617929190610f10565b60405180910390a150565b60008054906101000a900473ffffffffffffffffffffffffffffffffffffffff1681565b6000604051905090565b600080fd5b600080fd5b6000819050919050565b61066d8161065a565b811461067857600080fd5b50565b60008135905061068a81610664565b92915050565b6000602082840312156106a6576106a5610650565b5b60006106b48482850161067b565b91505092915050565b600073ffffffffffffffffffffffffffffffffffffffff82169050919050565b60006106e8826106bd565b9050919050565b6106f8816106dd565b811461070357600080fd5b50565b600081359050610715816106ef565b92915050565b60006020828403121561073157610730610650565b5b600061073f84828501610706565b91505092915050565b60008115159050919050565b61075d81610748565b82525050565b60006020820190506107786000830184610754565b92915050565b6107878161065a565b82525050565b60006020820190506107a2600083018461077e565b92915050565b600081519050919050565b600082825260208201905092915050565b60005b838110156107e25780820151818401526020810190506107c7565b60008484015250505050565b6000601f19601f8301169050919050565b600061080a826107a8565b61081481856107b3565b93506108248185602086016107c4565b61082d816107ee565b840191505092915050565b600060608201905061084d600083018661077e565b818103602083015261085f81856107ff565b905061086e604083018461077e565b949350505050565b6000604082019050818103600083015261089081856107ff565b905061089f602083018461077e565b9392505050565b600080fd5b600080fd5b7f4e487b7100000000000000000000000000000000000000000000000000000000600052604160045260246000fd5b6108e8826107ee565b810181811067ffffffffffffffff82111715610907576109066108b0565b5b80604052505050565b600061091a610646565b905061092682826108df565b919050565b600067ffffffffffffffff821115610946576109456108b0565b5b61094f826107ee565b9050602081019050919050565b82818337600083830152505050565b600061097e6109798461092b565b610910565b90508281526020810184848401111561099a576109996108ab565b5b6109a584828561095c565b509392505050565b600082601f8301126109c2576109c16108a6565b5b81356109d284826020860161096b565b91505092915050565b6000602082840312156109f1576109f0610650565b5b600082013567ffffffffffffffff811115610a0f57610a0e610655565b5b610a1b848285016109ad565b91505092915050565b610a2d816106dd565b82525050565b6000602082019050610a486000830184610a24565b92915050565b7f416c726561647920766f74656400000000000000000000000000000000000000600082015250565b6000610a84600d836107b3565b9150610a8f82610a4e565b602082019050919050565b60006020820190508181036000830152610ab381610a77565b9050919050565b7f496e76616c69642063616e646964617465000000000000000000000000000000600082015250565b6000610af06011836107b3565b9150610afb82610aba565b602082019050919050565b60006020820190508181036000830152610b1f81610ae3565b9050919050565b7f4e487b7100000000000000000000000000000000000000000000000000000000600052601160045260246000fd5b6000610b608261065a565b91507fffffffffffffffffffffffffffffffffffffffffffffffffffffffffffffffff8203610b9257610b91610b26565b5b600182019050919050565b6000604082019050610bb26000830185610a24565b610bbf602083018461077e565b9392505050565b7f4e487b7100000000000000000000000000000000000000000000000000000000600052602260045260246000fd5b60006002820490506001821680610c0d57607f821691505b602082108103610c2057610c1f610bc6565b5b50919050565b7f4e6f7420617574686f72697a6564000000000000000000000000000000000000600082015250565b6000610c5c600e836107b3565b9150610c6782610c26565b602082019050919050565b60006020820190508181036000830152610c8b81610c4f565b9050919050565b60008190508160005260206000209050919050565b60006020601f8301049050919050565b600082821b905092915050565b600060088302610cf47fffffffffffffffffffffffffffffffffffffffffffffffffffffffffffffffff82610cb7565b610cfe8683610cb7565b95508019841693508086168417925050509392505050565b6000819050919050565b6000610d3b610d36610d318461065a565b610d16565b61065a565b9050919050565b6000819050919050565b610d5583610d20565b610d69610d6182610d42565b848454610cc4565b825550505050565b600090565b610d7e610d71565b610d89818484610d4c565b505050565b5b81811015610dad57610da2600082610d76565b600181019050610d8f565b5050565b601f821115610df257610dc381610c92565b610dcc84610ca7565b81016020851015610ddb578190505b610def610de785610ca7565b830182610d8e565b50505b505050565b600082821c905092915050565b6000610e1560001984600802610df7565b1980831691505092915050565b6000610e2e8383610e04565b9150826002028217905092915050565b610e47826107a8565b67ffffffffffffffff811115610e6057610e5f6108b0565b5b610e6a8254610bf5565b610e75828285610db1565b600060209050601f831160018114610ea85760008415610e96578287015190505b610ea08582610e22565b865550610f08565b601f198416610eb686610c92565b60005b82811015610ede57848901518255600182019150602085019450602081019050610eb9565b86831015610efb5784890151610ef7601f891682610e04565b8355505b6001600288020188555050505b505050505050565b6000604082019050610f25600083018561077e565b8181036020830152610f3781846107ff565b9050939250505056fea264697066735822122040c5be874b76da7b79c77db65ae46c96baffd8f4e4eb8fc9b7faf71893733daa64736f6c634300081c0033",
  "linkReferences": {},
  "deployedLinkReferences": {}
}